:100000000C9462000C948A000C948A000C948A0070
:100010000C948A000C948A000C948A000C948A0038
:100020000C948A000C948A000C948A000C948A0028
:100030000C948A000C948A000C948A000C948A0018
:100040000C94AC010C948A000C9450040C94810420
:100050000C948A000C948A000C948A000C948A00F8
:100060000C948A000C948A000000000024002700F1
:100070002A0000000000250028002B0000000000DE
:1000800023002600290004040404040404040202DA
:100090000202020203030303030301020408102007
:1000A0004080010204081020010204081020000012
:1000B0000007000201000003040600000000000029
:1000C0000000460511241FBECFEFD8E0DEBFCDBF34
:1000D00011E0A0E0B1E0E6ECFBE002C005900D927B
:1000E000A432B107D9F711E0A4E2B1E001C01D923A
:1000F000A63DB107E1F710E0C4ECD0E004C02297C0
:10010000FE010E94DD05C23CD107C9F70E948305AC
:100110000C94E1050C940000CF93DF93C7EBD1E082
:10012000CE0140E855E260E070E00E94C804CE01D4
:1001300060E071E00E94D4028FE060E00E9405015F
:10014000DF91CF910895CF93DF938FE00E946101FB
:1001500090932501809324018FE00E948B01BC01C4
:1001600087EB91E04AE050E00E947C0380912401FB
:100170009091250181309105C1F4C5E0D0E08C2F2C
:1001800061E00E9405018C2F61E00E94290164EF6B
:1001900071E080E090E00E941A028C2F60E00E94E3
:1001A00029012196C830D10551F7DF91CF910895EB
:1001B000833071F0843028F48130A1F0823021F551
:1001C00014C08630B1F08730D1F08430E9F404C037
:1001D000809180008F7703C0809180008F7D809315
:1001E0008000089584B58F7702C084B58F7D84BD6B
:1001F00008958091B0008F778093B000089580912A
:10020000B0008F7D8093B000089590E0FC01E65629
:10021000FF4F2491FC01EA57FF4FE491EE23C1F018
:10022000F0E0EE0FFF1FE859FF4F85919491DC013C
:10023000662341F49FB7F8948C91209582238C9388
:100240009FBF08959FB7F8948C91822B8C939FBF8A
:1002500008950F931F93DF93CF930F92CDB7DEB71F
:10026000282F30E0F901E255FF4F8491F901E6565D
:10027000FF4F14912A573F4FF90104910023D9F001
:10028000882321F069830E94D8006981E02FF0E083
:10029000EE0FFF1FEE58FF4F85919491DC019FB741
:1002A000F894662321F48C911095812302C08C91DF
:1002B000812B8C939FBF0F90CF91DF911F910F9156
:1002C00008950F931F93282F30E0F901E255FF4F57
:1002D0008491F901E656FF4F04912A573F4FF901E7
:1002E0001491112391F0882311F00E94D800E12F7E
:1002F000F0E0EE0FFF1FE458FF4F85919491DC0171
:100300008C91802321E030E011F420E030E0C9013D
:100310001F910F9108958E3008F08E508770909144
:1003200012019295990F990F907C982B90937C00D5
:1003300080917A00806480937A0080917A0086FDB3
:10034000FCCF2091780030917900932F80E030E04D
:10035000282B392BC90108951F920F920FB60F92C7
:1003600011242F933F938F939F93AF93BF938091CB
:100370002A0190912B01A0912C01B0912D01309177
:100380002E010196A11DB11D232F2D5F2D3720F0C9
:100390002D570196A11DB11D20932E0180932A0196
:1003A00090932B01A0932C01B0932D0180912601F5
:1003B00090912701A0912801B09129010196A11DDA
:1003C000B11D8093260190932701A0932801B0933B
:1003D0002901BF91AF919F918F913F912F910F90E4
:1003E0000FBE0F901F9018959FB7F894209126018B
:1003F00030912701409128015091290186B5A89B91
:1004000006C08F3F21F02F5F3F4F4F4F5F4F9FBF81
:10041000542F432F322F2227280F311D411D511DEC
:1004200082E0220F331F441F551F8A95D1F7B9016F
:10043000CA010895EF92FF920F931F93CF93DF931A
:100440007B018C010E94F401EB010FC00E94F401BA
:100450006C1B7D0B83E0683E780738F00894E10858
:10046000F10801091109C851DC4FE114F10401053B
:10047000110561F7DF91CF911F910F91FF90EF90E0
:100480000895789484B5826084BD84B5816084BD0C
:1004900085B5826085BD85B5816085BDEEE6F0E0FD
:1004A000808181608083E1E8F0E010828081826059
:1004B0008083808181608083E0E8F0E080818160DA
:1004C0008083E1EBF0E0808184608083E0EBF0E00A
:1004D000808181608083EAE7F0E0808184608083AE
:1004E0008081826080838081816080838081806858
:1004F00080831092C1000895CF92DF92EF92FF9215
:100500000F931F93CF93DF936C017B018A01C0E0AF
:10051000D0E00FC0D7016D917D01D601ED91FC9126
:100520000190F081E02DC6010995C80FD91F015037
:1005300010400115110571F7CE01DF91CF911F9188
:100540000F91FF90EF90DF90CF900895DB010D9019
:100550000020E9F7AD0141505040461B570BDC012C
:10056000ED91FC910280F381E02D09950895DC0165
:10057000ED91FC910190F081E02D099508950F9384
:100580001F93CF93DF93EC016DE00E94B7028C01C3
:10059000CE016AE00E94B702080F191FC801DF915F
:1005A000CF911F910F9108950F931F93CF93DF93D6
:1005B000EC010E94A6028C01CE010E94BF02080F2E
:1005C000191FC801DF91CF911F910F9108958F924C
:1005D0009F92AF92BF92CF92DF92EF92FF920F93D2
:1005E0001F93DF93CF93CDB7DEB7A1970FB6F894E3
:1005F000DEBF0FBECDBF6C01042FE52FCB01122F44
:1006000019A2223008F41AE021E2E22EF12CEC0EBD
:10061000FD1E812E9924AA24BB2403C0022FE32FA0
:10062000CA01602F7E2FA50194010E94A505129F8B
:10063000802D1124081B0894E108F1080A3014F4F5
:10064000005D01C0095CF7010083211531054105FA
:10065000510521F7C601B7010E94A602A1960FB667
:10066000F894DEBF0FBECDBFCF91DF911F910F91E8
:10067000FF90EF90DF90CF90BF90AF909F908F90C2
:100680000895CF92DF92EF92FF920F931F93CF9333
:10069000DF93EC017A018B012115310541F4E881EA
:1006A000F9810190F081E02D642F09951AC02A305C
:1006B0003105A9F477FF12C06DE20E94B7026C0108
:1006C00044275527BA014E195F09600B710BCE0103
:1006D0002AE00E94E702C80ED91E04C02AE00E9448
:1006E000E7026C01C601DF91CF911F910F91FF903E
:1006F000EF90DF90CF9008950F931F93CF93DF93E8
:10070000EC019A01CB01AC01662757FD6095762F6D
:10071000CE010E9441038C01CE010E94BF02080F4E
:10072000191FC801DF91CF911F910F910895FC010E
:1007300084859585FC01E05CFF4F208131818E5BD3
:100740009F4FFC0180819181281B390B2F733070E2
:10075000C9010895FC0184859585FC01E05CFF4F8B
:1007600040815181FC01EE5BFF4F208131814217B6
:10077000530741F00190F081E02DE80FF91F20812F
:1007800030E002C02FEF3FEFC9010895FC018485DE
:100790009585FC01E05CFF4F40815181FC01EE5BDF
:1007A000FF4F208131814217530771F0A081B18141
:1007B000A80FB91F2C918081918101968F73907041
:1007C0009183808330E002C02FEF3FEFC90108958D
:1007D000DC011E968D919C911F97FC01E05CFF4F00
:1007E0008E5B9F4F40815181DC012D913C9111978F
:1007F00042175307B9F708951F93FC01162F26855A
:100800003785D901A05CBF4F8D919C91019660E422
:1008100070E00E949205D901AE5BBF4F4D915C9193
:10082000119784179507D1F3D901A05CBF4F0D90A4
:10083000BC91A02DA20FB31F1C93A685B785A05C09
:10084000BF4F11969C938E93A689B7892C9181E016
:1008500090E0058C02C0880F991F0A94E2F7282BBC
:100860002C9381E090E01F910895FB01E05CFF4F25
:10087000208131812F5F3F4F2F733070DB01AE5BE2
:10088000BF4F4D915C9111972417350739F0A08126
:10089000B181A60FB71F8C933183208308950895EB
:1008A0001F920F920FB60F9211242F933F934F93E5
:1008B0005F936F937F938F939F93AF93BF93EF93C8
:1008C000FF938091C6006FE271E00E943504FF91B2
:1008D000EF91BF91AF919F918F917F916F915F91B8
:1008E0004F913F912F910F900FBE0F901F90189531
:1008F00087EB91E00E949703009711F00E944F044C
:1009000008951F920F920FB60F9211242F933F93C9
:100910005F936F937F938F939F93AF93BF93EF9367
:10092000FF932091B3013091B4018091B501909172
:10093000B6012817390731F48091C1008F7D80936B
:10094000C10016C0E091B501F091B601ED58FE4F1F
:1009500020818091B5019091B601019660E470E02C
:100960000E9492059093B6018093B5012093C60032
:10097000FF91EF91BF91AF919F918F917F916F9177
:100980005F913F912F910F900FBE0F901F90189580
:10099000DF92EF92FF920F931F93CF93DF93EC01BF
:1009A0007A018B01DD24D394403081EE580780E03A
:1009B000680780E0780749F4DD24EC89FD8910821E
:1009C00060E874E88EE190E00FC0EC89FD8981E079
:1009D00090E00E8C02C0880F991F0A94E2F7808382
:1009E00060E079E08DE390E0A80197010E94A50501
:1009F00021503040404050405695479537952795B7
:100A000080E12030380710F0DD20B1F6E889F9895F
:100A10003083EA89FB892083EE89FF89408181E068
:100A200090E09C010A8C02C0220F331F0A94E2F767
:100A3000422B4083EE89FF8940819C010B8C02C0D0
:100A4000220F331F0A94E2F7422B4083EE89FF897D
:100A500040819C010C8C02C0220F331F0A94E2F7E4
:100A6000422B4083EE89FF8920810D8C02C0880FC4
:100A7000991F0A94E2F7809582238083DF91CF91BA
:100A80001F910F91FF90EF90DF9008951092BA019F
:100A90001092B90188EE93E0A0E0B0E08093BB0132
:100AA0009093BC01A093BD01B093BE01E9EBF1E0CE
:100AB00087E191E0929382938FE291E0958784871A
:100AC00083E791E09787868785EC90E0918B808B18
:100AD00084EC90E0938B828B80EC90E0958B848B00
:100AE00081EC90E0978B868B86EC90E0918F808FE5
:100AF00084E0828F83E0838F87E0848F85E0858F19
:100B000081E0868F0895CF93DF930E9441020E9477
:100B10008C00C8E7D4E00E94A3002097E1F30E9474
:100B20007804F9CF97FB092E07260AD077FD04D069
:100B30002ED006D000201AF4709561957F4F08954D
:100B4000F6F7909581959F4F0895A1E21A2EAA1B62
:100B5000BB1BFD010DC0AA1FBB1FEE1FFF1FA2176D
:100B6000B307E407F50720F0A21BB30BE40BF50B6A
:100B7000661F771F881F991F1A9469F760957095F3
:100B8000809590959B01AC01BD01CF010895AA1BF2
:100B9000BB1B51E107C0AA1FBB1FA617B70710F068
:100BA000A61BB70B881F991F5A95A9F7809590959A
:100BB000BC01CD010895EE0FFF1F0590F491E02DCB
:060BC0000994F894FFCF38
:100BC600427574746F6E207465737420626567690C
:100BD6006E000100000000FC037C029703C603AA16
:040BE60003E803001D
:00000001FF
